:020000040804EE
:1001000000000320C112040811130408111304088D
:10011000CD10040811130408CF10040811130408AB
:10012000000000000000000000000000D1100408E2
:100130001113040800000000D3100408D5100408AF
:1001400011130408111304081113040811130408EF
:1001500011130408111304081113040811130408DF
:1001600011130408111304081113040811130408CF
:1001700011130408111304081113040811130408BF
:1001800011130408111304081113040811130408AF
:10019000111304081113040811130408111304089F
:1001A000111304081113040811130408111304088F
:1001B000111304081113040811130408111304087F
:1001C000111304081113040811130408111304086F
:1001D000111304081113040811130408111304085F
:1001E000111304081113040811130408111304084F
:1001F000111304081113040811130408111304083F
:10020000111304081113040811130408111304082E
:10021000111304081113040811130408111304081E
:10022000111304081113040811130408111304080E
:1002300011130408111304081113040811130408FE
:1002400011130408111304081113040811130408EE
:1002500011130408111304081113040811130408DE
:1002600011130408111304081113040811130408CE
:10027000111304080000000011130408000000001E
:1002800011130408111304081113040811130408AE
:10029000111304081113040811130408111304089E
:1002A000111304081113040811130408111304088E
:1002B000111304081113040811130408111304087E
:1002C000111304081113040811130408111304086E
:1002D000111304081113040811130408111304085E
:1002E000111304081113040811130408111304084E
:0802F0001113040800000000D6
:1002F8000348044B834202D0034B03B118477047AD
:10030800708001207080012000000000064B074922
:10031800C91A891048BF0131491003D0044B0BB1E9
:1003280001481847704700BF708001207080012085
:100338000000000010B5064C237843B9FFF7D8FF3A
:10034800044B13B10448AFF300800123237010BDA0
:1003580070800120000000001413040808B5044B45
:100368001BB104490448AFF30080BDE80840CDE75D
:10037800000000007480012014130408014B186861
:10038800704700BF008001200F4B70B50F4DAB4286
:10039800A3EB050607D0B6100024013455F8043B3A
:1003A8009847A642F9D80A4D00F0B0FF094B5E1BEA
:1003B800AB424FEAA60606D00024013455F8043BA8
:1003C8009847A642F9D870BDE8130408E813040852
:1003D800E8130408EC13040870B586074AD0541EC5
:1003E800002A41D0CAB2034601E0013C3CD303F8DD
:1003F800012B9D07F9D1032C2FD9CDB20F2C05EB7A
:10040800052505EB054538D9A4F1100C03F1100EAC
:100418001A462CF00F064FEA1C1CB6441560103221
:1004280042F80C5C42F8085C42F8045C7245F5D16D
:100438000CF1010214F00C0F04F00F0C03EB021284
:1004480013D0ACF1040323F003030433134442F83C
:10045800045B9A42FBD10CF003042CB1C9B21C44D2
:1004680003F8011B9C42FBD170BD64461346002C67
:10047800F4D1F9E703461446BDE71A46A446E0E777
:1004880070B50646002856D083690D4613B38468B4
:100498002B4B9C422AD02B4B9C424ED02A4B9C4241
:1004A80008BFF468A3891B0724D5236913B3013D4A
:1004B800A36815F8011F013BA36059B3002B04DAA8
:1004C800A26993421DDB0A291BD023685A1C2260AB
:1004D8001970EDE700F00AFBB369B468002BD7D1B7
:1004E800304600F003FB164B9C42D4D17468A389B4
:1004F8001B07DAD42146304600F090F80028D6D001
:1005080005E02246304600F029F80130D0D14FF0FE
:10051800FF3070BD002B08DA22460A21304600F071
:100528001DF80130F3D00A2070BD23680A22591C37
:1005380021601A70F7E78368FFDEB468B2E700BF8E
:10054800A41304088413040864130408024B014626
:100558001868FFF795BF00BF00800120F8B50D4669
:100568000646144608B1836943B3254B9C422AD0FA
:10057800244B9C4229D0244B9C4208BFF468A269B2
:10058800A389A2601A0722D5236903B32268EDB2B2
:100598006169D31A2F46994229DD0133A1680139CF
:1005A800A160511C2160157062699A4216D00A2D0B
:1005B80002D1A389DB0711D43846F8BD00F096FABA
:1005C8000F4B9C42D4D17468D9E7B468D7E7214669
:1005D800304600F023F838B92369D7E7214630467A
:1005E80000F01EF90028E7D04FF0FF37E4E7214676
:1005F800304600F015F90028F6D122680123CDE72E
:10060800A41304088413040864130408024B0A465C
:1006180001461868FFF7A2BF00800120384B70B56B
:100628001D6806460C460DB1AB69D3B1354B9C42EB
:100638001DD0354B9C4242D0344B9C4208BFEC68DD
:10064800B4F90C30190717D52269FAB113F0010172
:100658002BD0616900204942A060A1615AB30020F3
:1006680070BD284600F042FA264B9C42E1D16C68E6
:10067800B4F90C301907E7D4DA0636D55D0720D46B
:10068800226943F00803A381002ADFD103F4207113
:10069800B1F5007FDAD02146304600F08BFAB4F984
:1006A8000C30226913F00101D3D1980758BF616952
:1006B800A160002AD3D119061FD4104670BDAC68BA
:1006C800BEE7616B51B104F14402914204D0304657
:1006D80000F0FAFAB4F90C300022626300212269B2
:1006E80023F02403C4E90021CBE7092243F04003A7
:1006F80032604FF0FF30A38170BD43F04003F8E74C
:1007080000800120A4130408841304086413040857
:10071800B1F90C302DE9F0411E070C46804641D452
:100728004A68002A59DDE56A002D38D00022D8F839
:100738000060C8F8002013F480525BD10123216ABD
:100748004046A847451C02465FD0B4F90C30E56A1C
:10075800580705D56368D21A636B0BB1236CD21A9C
:10076800216A00234046A847411C45D1D8F80030EB
:10077800002B41D01D2B01D0162B32D1002223692A
:10078800C4E90032616BC8F8006041B104F1440368
:10079800994202D0404600F097FA00236363002094
:1007A800BDE8F0810E69002EF9D09B070D680E6038
:1007B8000CBF4B690023AD1B8B600BE02B46324608
:1007C800216A4046A76AB847B0F1000CA5EB0C05B2
:1007D800664406DD002DF1DCE1E70A6C002AA2DCA4
:1007E800DDE7B4F90C304FF0FF3043F04003A3814C
:1007F800BDE8F081626DABE7002363602369236085
:10080800A389DA04BED56065BCE7D8F80030002BB0
:100818009BD01D2B01D0162BE3D1C8F80060BEE792
:1008280038B50B69BBB10C46054608B18369B3B14D
:100838000D4B9C4211D00D4B9C4213D00C4B9C424B
:1008480008BFEC68B4F90C302BB121462846BDE846
:100858003840FFF75DBF002038BD6C68F2E700F054
:1008680045F9E5E7AC68EDE7A41304088413040828
:100878006413040838B540B3184A04460369156878
:10088800D3B10DB1AB69CBB1154B9C420FD0154B11
:100898009C4221D0144B9C4208BFEC68B4F90C3040
:1008A80053B121462846BDE83840FFF731BF6C6890
:1008B800B4F90C30002BF4D1002038BD284600F0E4
:1008C80015F9074B9C42E2D1F1E7084B0849186833
:1008D800BDE8384000F04AB9AC68DFE70080012085
:1008E800A413040884130408641304086013040898
:1008F8002908040800207047014900F037B900BFF3
:10090800290804080020704770B568234E1E0D465C
:1009180003FB06F606F1740100F02AFA044640B11A
:1009280000210C3006F16802A060C4E90015FFF749
:1009380053FD204670BD00BFF8B5254B06461F681D
:10094800BB693BB34837D7E90134013B04D51DE007
:100958005A1C04F1680419D0B4F90C50013B002D5D
:10096800F6D11C4B0822294604F15C006566E36059
:100978002560A561C4E90155C4E90455FFF72CFDBC
:10098800C4E90D55C4E912552046F8BD3D682DB19E
:100998002F46D8E7384600F01FF8D3E74FF4D67152
:1009A800304600F0E5F9044670B1042305600C30C8
:1009B8002946254640F8083C4FF4D072A060FFF75E
:1009C8000BFD3C602F46BEE70C2338603360DBE745
:1009D800601304080100FFFF374A384912682DE9FF
:1009E800F84F90424FF00003054681620365C0E965
:1009F80012335ED028460024FFF79EFF03462846A0
:100A0800DFF8C4B06B60FFF797FF03462846DFF8AE
:100A1800BCA0AB60FFF790FF6F680423E860082272
:100A28002146FB6007F15C00BC607C66BC61DFF8B6
:100A3800A090DFF8A080C7E90044C7E90444FFF7A5
:100A4800CBFCAE681E4B0822C7F828A02146C7F881
:100A58002C9006F15C00C7F83080C7E9087BF3608A
:100A6800B4607466B461C6E90044C6E90444FFF79B
:100A7800B3FC144BC6F8308021460822C6E9086B3F
:100A8800C6E90AA9EE68F36006F15C00B460746612
:100A9800B461C6E90044C6E90444FFF79DFC01239C
:100AA800C6F828A0C6E9086BC6E90B98AB61BDE893
:100AB800F88F012383619DE7601304080109040886
:100AC8000900010012000200510E0408790E040802
:100AD800B90E0408E10E0408024B0349186800F037
:100AE80045B800BF6013040829080408836903B9DE
:100AF80072E77047704700BF704700BF704700BF7C
:100B0800704700BF024B0349186800F00FB800BFD8
:100B180000800120FD080408024B0349186800F012
:100B280005B800BF008001200D0904082DE9F04137
:100B38000026884600F14807D7E90154013D0ED444
:100B4800A389013D012B06D9B4F90E3020460133A3
:100B580001D0C04706436B1C04F16804F0D13F681C
:100B6800002FE9D13046BDE8F08100BF2DE9F843F8
:100B78004FF000090646884600F14807D7E90154B6
:100B8800013D10D4A389013D012B08D9B4F90E30D9
:100B980021463046013302D0C04749EA00096B1CA0
:100BA80004F16804EED13F68002FE7D14846BDE85C
:100BB800F88300BFB1F90C30F0B50C46990797B02F
:100BC80007D504F1470301222360C4E9043217B0B2
:100BD800F0BDB4F90E10054600292EDB6A4600F078
:100BE800A7F9002827DB019E4FF48067284606F402
:100BF80070463946A6F50056B6FA86F6760900F02C
:100C0800B7F840B3A3891C4A43F08003AA62A381C2
:100C18002060C4E90407002ED9D0B4F90E10284684
:100C280000F09CF90028D2D0A38923F0030343F0F5
:100C38000103A381CBE7B4F90C3013F0800F2846E9
:100C48004FF000060CBF4FF480674027394600F08C
:100C58008FF80028D6D1B4F90C309A05B7D423F010
:100C6800030304F14702012143F002032260C4E9AF
:100C78000421A381ABE700BF0109040870B50C4645
:100C8800B1F90E1096B0154600291E460FDB6A46CC
:100C980000F04EF900280ADB019B4FF4806203F450
:100CA8007043A3F50053B3FA83F35B0907E0A28905
:100CB800002312F0800F14BF40224FF480620020FE
:100CC80033602A6016B070BD00293AD038B551F8A3
:100CD800043C0C1F0546002BB8BFE41800F066F969
:100CE800224A1368D3B1A34214D81A465B680BB1E1
:100CF800A342FAD911685018A04223D02ED82168EF
:100D08006018834211D0636054602846BDE83840BB
:100D180000F04EB92168601883420DD02846636000
:100D28001460BDE8384000F043B918685B680844AF
:100D3800C4E900035460E8E718685B680844206069
:100D4800ECE7704720680144501811608342DCD1F9
:100D5800D3E900040144C2E90014D6E70C2328466D
:100D68002B60BDE8384000F023B900BF8C8001201B
:100D7800F8B5CD1C064625F0030508350C2D38BFFF
:100D88000C25002D36DBA94234D8254F00F00EF98A
:100D98003A6872B1144603E0636822461C4643B1C0
:100DA80023685B1BF8D40B2B28D923601C442560CF
:100DB80013E0796871B32946304600F033F8431CD4
:100DC80022D0C41C24F00304A04205D0211A3046C6
:100DD80000F028F8013017D02560304600F0E8F818
:100DE80004F10B00231D20F00700C21A01D01B1AC2
:100DF800A350F8BD0C2333600020F8BD636894420B
:100E08000CBF3B605360E8E70C233046336000F0CA
:100E1800CFF8F1E7304600F005F87860CBE700BF7F
:100E28008C80012038B50022064D044608462A6009
:100E380000F024F9431C00D038BD2B68002BFBD0F0
:100E4800236038BD9480012010B50C46B1F90E100E
:100E580000F0B0F8002803DB636D0344636510BD40
:100E6800A38923F48053A38110BD00BF00207047DD
:100E78002DE9F0410C46B1F90C101F460546CB058B
:100E880016460BD421F480513B4632462846A181B0
:100E9800B4F90E10BDE8F04100F022B8B4F90E1014
:100EA8000223002200F06CF8B4F90C10EAE700BF46
:100EB80010B50C46B1F90E1000F062F8421CB4F9F6
:100EC8000C3004D043F480536065A38110BD23F433
:100ED8008053A38110BD00BFB1F90E1000F016B801
:100EE80038B50C4684461146074D1A46002320465D
:100EF80064462B6000F0A8F8431C00D038BD2B686E
:100F0800002BFBD0236038BD9480012038B5002227
:100F1800064D044608462A6000F0A4F8431C00D099
:100F280038BD2B68002BFBD0236038BD948001208E
:100F380070B50C460346084D0026204611461C464F
:100F48002E6000F092F8431C00D070BD2B68002B77
:100F5800FBD0236070BD00BF9480012038B500220B
:100F6800064D044608462A6000F084F8431C00D069
:100F780038BD2B68002BFBD0236038BD948001203E
:100F880038B50C4684461146074D1A4600232046BC
:100F980064462B6000F070F8431C00D038BD2B6805
:100FA800002BFBD0236038BD94800120704700BF20
:100FB800704700BF38B50C4684461146074D1A469F
:100FC8000023204664462B6000F02EF8431C00D016
:100FD80038BD2B68002BFBD0236038BD94800120DE
:100FE80008B500F0B7F80C48FFF7B0FA00F0A0F920
:100FF80000F09AF900F0A4F900F096F94FF4FA70AD
:1010080000F0CCF800F094F900F096F94FF4FA707B
:1010180000F0C4F8EEE700BFC413040810B5044696
:1010280000F092F9204610BD70B50C461646002512
:1010380006E0AFF30080214601F8010B01350C46AC
:10104800B542F6DB304670BD70B50C461646002535
:1010580004E014F8010BFFF7E1FF0135B542F8DBB6
:10106800304670BD4FF0FF3070474FF400534B606F
:1010780000207047012070470020704710B50346D4
:101088000C4A0D490D48006840B10C4800680344FB
:10109800521A934206D8094A136010BD0748084CF3
:1010A8000460F2E7FFF76AF90C2303604FF0FF30A2
:1010B800F3E700BF0000032000040000988001202F
:1010C800A0800120FEE7FEE77047704708B500F0F2
:1010D80053F808BD82B00A4B1A6E42F001021A6634
:1010E8001A6E02F001020092009A9A6D42F0805244
:1010F8009A659B6D03F080530193019B02B0704782
:1011080000100240104B1B780BB90120704710B536
:1011180004464FF47A70B0FBF3F30C4A1068B0FB46
:10112800F3F000F0A5F868B9072C01D901200AE00E
:10113800002221464FF0FF3000F08AF8044B1C6073
:10114800002000E0012010BD648001206C80012097
:101158006880012010B5042000F068F800F0A4F8B9
:101168000020FFF7CFFF10B10124204610BD044630
:10117800FFF7B0FFF9E70000034B1B78034A11683B
:101188000B441360704700BF648001209C800120DD
:10119800014B1868704700BF9C80012038B5044691
:1011A800FFF7F6FF0546B4F1FF3F02D0044B1B786A
:1011B8001C44FFF7EDFF401BA042FAD338BD00BF27
:1011C80064800120002808DB4901C9B200F16040B1
:1011D80000F5614080F80013704700F00F004901E6
:1011E800C9B2014B1954704714ED00E000B500F086
:1011F8000700C0F1070CBCF1030F28BF4FF0030C28
:10120800C31C062B0FD9031F4FF0FF3E0EFA0CF03C
:1012180021EA000199400EFA03FE22EA0E0241EA91
:1012280002005DF804FB0023EEE70000074AD368DC
:1012380023F4E0631B041B0C000200F4E06003438A
:1012480043F0BF6343F40033D360704700ED00E020
:1012580010B50446054BD868C0F30220FFF7C6FF57
:1012680001462046FFF7AEFF10BD00BF00ED00E0CD
:101278000138B0F1807F0BD24FF0E0235861054A66
:10128800E02182F823100020986107221A61704734
:101298000120704700ED00E0014B024A9A60704758
:1012A80000ED00E00001040808B500F051F8014B1A
:1012B800186008BD6C800120DFF834D0FFF7ECFF20
:1012C800002103E00B4B5B58435004310A480B4B99
:1012D80042189A42F6D30A4A02E0002342F8043B35
:1012E800084B9A42F9D3FFF74FF8FFF779FEFEE76C
:1012F80000000320F81304080080012070800120FA
:1013080070800120A0800120FEE70000F8B500BF32
:10131800F8BC08BC9E467047F8B500BFF8BC08BCCE
:101328009E467047000000005FF800F009E0030CDB
:101338005FF800F029E0030C5FF800F021E0030CEF
:101348005FF800F031E0030C5FF800F011E0030CE7
:081358005FF800F001E0030C56
:1013600004800120000000000000000000000000D8
:10137000000000000000000000000000000000006D
:10138000000000000000000000000000000000005D
:10139000000000000000000000000000000000004D
:1013A000000000000000000000000000000000003D
:1013B000000000000000000000000000000000002D
:1013C0000000000057656C636F6D6520746F204DE1
:1013D00061696E204170706C69636174696F6E0D34
:0813E000000000000000000005
:0813E800650304080000000089
:0813F0003D03040800000000A9
:1013F8000480012000000000A413040884130408DA
:101408006413040800000000000000000000000051
:1014180000000000000000000000000000000000C4
:1014280000000000000000000000000000000000B4
:1014380000000000000000000000000000000000A4
:101448000000000000000000000000000000000094
:1014580000000000010000000800000000093D0035
:04000005080412C118
:00000001FF
