:020000040C00EE
:1000000000800130F149000C450E000C470E000C39
:10001000490E000C4B0E000C4D0E000C4F0E000C48
:10002000000000000000000000000000510E000C65
:10003000530E000C00000000550E000C570E000C73
:10004000414A000C414A000C414A000C414A000C54
:10005000414A000C414A000C414A000C414A000C44
:10006000414A000C414A000C414A000C414A000C34
:10007000414A000C414A000C414A000C414A000C24
:10008000414A000C414A000C414A000C414A000C14
:10009000414A000C414A000C414A000C414A000C04
:1000A000414A000C414A000C414A000C414A000CF4
:1000B000414A000C414A000C414A000C414A000CE4
:1000C000414A000C414A000C414A000C414A000CD4
:1000D000414A000C414A000C414A000C414A000CC4
:1000E000414A000C414A000C414A000C414A000CB4
:1000F000414A000C414A000C414A000C414A000CA4
:10010000414A000C414A000C414A000C414A000C93
:10011000414A000C414A000C414A000C414A000C83
:10012000414A000C414A000C414A000C414A000C73
:10013000414A000C610E000C414A000C414A000C7F
:10014000414A000C414A000C414A000C414A000C53
:10015000414A000C414A000C414A000C414A000C43
:10016000414A000C414A000C414A000C414A000C33
:10017000414A000C00000000414A000C0000000051
:10018000414A000C414A000C414A000C414A000C13
:10019000414A000C414A000C414A000C414A000C03
:1001A000414A000C414A000C414A000C414A000CF3
:1001B000414A000C414A000C414A000C414A000CE3
:1001C000414A000C414A000C414A000C414A000CD3
:1001D000414A000C414A000C414A000C414A000CC3
:1001E000414A000C414A000C414A000C414A000CB3
:0801F000414A000C0000000070
:1001F8000348044B834202D0034B03B118477047AE
:10020800280000302800003000000000064B074995
:10021800C91A891048BF0131491003D0044B0BB1EA
:1002280001481847704700BF2800003028000030F8
:100238000000000010B5064C237843B9FFF7D8FF3B
:10024800044B13B10448AFF300800123237010BDA1
:100258002800003000000000444A000C08B5044B98
:100268001BB104490448AFF30080BDE80840CDE75E
:10027800000000002C000030444A000C0F4B70B501
:100288000F4DAB42A3EB050607D0B610002401348E
:1002980055F8043B9847A642F9D80A4D04F0CEFB1E
:1002A800094B5E1BAB424FEAA60606D00024013478
:1002B80055F8043B9847A642F9D870BD884C000C05
:1002C800884C000C884C000C8C4C000C032A70B530
:1002D80011D940EA01039B071ED104460B4602E0F0
:1002E800043A032A1CD91946204653F8045B54F8EB
:1002F800046BAE42F4D0541EAAB1421E013901E08B
:10030800C3180BD012F801EF11F801CFA31AE64574
:10031800F6D0AEEB0C0070BD541EEEE7184670BD6B
:1003280020461946E7E7104670BD00BF70B586073E
:100338004AD0541E002A41D0CAB2034601E0013C0B
:100348003CD303F8012B9D07F9D1032C2FD9CDB24B
:100358000F2C05EB052505EB054538D9A4F1100C44
:1003680003F1100E1A462CF00F064FEA1C1CB64477
:100378001560103242F80C5C42F8085C42F8045CE4
:100388007245F5D10CF1010214F00C0F04F00F0CBA
:1003980003EB021213D0ACF1040323F0030304337C
:1003A800134442F8045B9A42FBD10CF003042CB1CD
:1003B800C9B21C4403F8011B9C42FBD170BD6446C2
:1003C8001346002CF4D1F9E703461446BDE71A4654
:1003D800A446E0E72DE9E04F2746A046A146A246FD
:1003E800A346A4462DED108B4FF0000545EC185B95
:1003F80045EC195A45EC1A5A45EC1B5A45EC1C5A5F
:1004080045EC1D5A45EC1E5A45EC1F5AF1EE105AA0
:100418004FF66076C0F6FF763540E1EE105A84F369
:10042800008825462646A447BDEC108BBDE8E08F22
:1004380053B94AB9002908BF00281CBF4FF0FF3143
:100448004FF0FF3000F082B9ADF1080C6DE904CE31
:1004580000F006F8DDF804E0DDE9022304B0704797
:100468002DE9F04F099D0C46002B4DD18A420F46CD
:1004780084469646B2FA82F360D94BB102FA03FE7B
:10048800C3F120029F4000FA03FC20FA02F217434E
:100498004FEA1E461FFA8EF44FEA1C42B7FBF6F1EC
:1004A80006FB117701FB04F042EA0742904208D9A3
:1004B8001EEB020201F1FF3702D2904200F23181B5
:1004C8003946121A1FFA8CFCB2FBF6F006FB102212
:1004D80000FB04F44CEA024C644508D91EEB0C0CF2
:1004E80000F1FF3202D2644500F21E81104640EA54
:1004F8000140ACEB040C002125B12CFA03F30022D7
:10050800C5E90032BDE8F08F8B4205D90DB1C5E9C8
:10051800000100210846F5E7B3FA83F100294DD11F
:10052800A342C0F0F380904280F0F0800646234654
:100538000846002DE6D0C5E90063E3E7002B40F04C
:10054800A3808A1A4FEA1E471FFA8EF60121B2FBD2
:10055800F7F407FB14204FEA1C4242EA004206FB6C
:1005680004F090420FD91EEB020204F1FF382CBFB1
:100578004FF001094FF00009904203D9B9F1000F7B
:1005880000F0CC804446121A1FFA8CFCB2FBF7F03C
:1005980007FB102200FB06F64CEA024C664508D918
:1005A8001EEB0C0C00F1FF3202D2664500F2B3805C
:1005B8001046ACEB060C40EA04409DE7C1F120066A
:1005C8008B4004FA01FE22FA06F720FA06FCF440F2
:1005D8008A401F434EEA0C0300FA01FE4FEA17480F
:1005E8004FEA13491FFA87FCB4FBF8F008FB1044E4
:1005F80049EA044400FB0CF9A1450ED93C1900F165
:10060800FF3A2CBF4FF0010B4FF0000BA14503D967
:10061800BBF1000F00F08B805046A4EB09041FFAD1
:1006280083F9B4FBF8F308FB134403FB0CFC49EA19
:100638000444A44506D93C1903F1FF3801D2A44566
:100648007BD8434643EA0040A4EB0C04A0FB029885
:100658004445CC46434602D306D1CE4504D20138A0
:10066800B9EB020C68EB0703002D6CD0BEEB0C0253
:1006780064EB030422FA01F304FA06F6CC400021E5
:100688001E43C5E900643DE702FA03FEC3F12001F9
:1006980004FA03F200FA03FCCC404FEA1E4720FAA2
:1006A80001F11FFA8EF6B4FBF7F00A4307FB10447A
:1006B800110C41EA044100FB06F48C420ED91EEBF2
:1006C800010100F1FF382CBF4FF001094FF000097C
:1006D8008C4202D9B9F1000F2CD04046091B92B2C6
:1006E800B1FBF7F407FB141142EA014204FB06F1DF
:1006F800914207D91EEB020204F1FF3801D2914260
:100708001ED84446521A44EA004120E7861A64EB90
:10071800030301200DE7F44402384AE7023C72441F
:1007280031E702397244CCE6F4440238DFE6023895
:100738003C4472E702387144D0E7023B3C4481E70D
:10074800023C7244DEE72946DCE600BF704700BF82
:10075800F0B58BB000250595069507950895099580
:10076800294CE36C43F04003E364E36C03F040037B
:100778000193019B02F03EFAE36C43F00403E36447
:10078800E36C03F004030293029BE36C43F0080359
:10079800E364E36C03F008030393039BE36C43F007
:1007A8000103E364E36C03F001030493049B174F14
:1007B80001224FF48051384602F0A0F9144C01226E
:1007C8000821204602F09AF94FF480530593012638
:1007D80006960795089505A9384602F0ABF84FF438
:1007E800005305930695079505A90A4802F0A2F853
:1007F8000823059306960795089505A9204602F053
:1008080099F80BB0F0BD00BF00100250001802525A
:10081800000C02520008025272B6FEE708B500202A
:1008280002F0CEFA18B902F0DDFA10B908BDFFF7E8
:10083800F3FFFFF7F1FF000008B50448044B03601D
:1008480002F046FE00B908BDFFF7E6FFEC000030F5
:1008580000500C5208B50548054B0360002343605F
:1008680003F01CF800B908BDFFF7D6FFD800003028
:1008780000080C5208B51548154B03604FF4165381
:10088800436000238360C36003610C22426183617B
:10089800C36103624362836203F0A2FD70B9002161
:1008A8000A4803F019FE58B90021084803F039FE38
:1008B80040B9064803F0F1FD30B908BDFFF7ACFFB9
:1008C800FFF7AAFFFFF7A8FFFFF7A6FF44000030D5
:1008D8000038015000B599B04822002106A8FFF75A
:1008E80025FD0023019302930393049305934FF48A
:1008F800806002F0A1F9E8B9222306934FF48073CF
:1009080009930123109340230A930023119306A807
:1009180000F084FE80B90F23019301210291002386
:1009280003930493059301A801F050FA30B919B064
:100938005DF804FBFFF770FFFFF76EFFFFF76CFF32
:1009480008B500F039FDFFF7C5FFFFF701FFFFF716
:1009580065FFFFF771FFFFF77DFFFFF78BFF00F0E3
:100968007DF900F00BFA00F037FA00F01FF800F0FC
:100978007BF838B90B4800F091F848B9094800F0FD
:10098800D3F8FEE700221146102000F003F9F1E742
:1009980000221146202000F0FDF8034800F0C4F8BA
:1009A800ECE700BF000004080030070830B5A3B02A
:1009B8006C22002107A8FFF7B9FC6C46284D0FCD23
:1009C8000FC495E8070084E80700002400E001341C
:1009D800062C0CD840F2013122AB03EB840353F808
:1009E800880C02F009FA0028F1D0092400E000245C
:1009F8001CB12CB3204623B030BD002507950895BF
:100A08003022FF2109A8FFF791FC3022294615A8BA
:100A1800FFF78CFC219507A94FF0405002F07EFAB1
:100A280008B10924E6E72022294609A8FFF77EFC39
:100A380007A90C4802F072FA0028DAD00924D9E78D
:100A480000F00CF908B10A24D4E700F097F908B1CE
:100A58000A24CFE700F0C0F90028CBD00A24C9E760
:100A6800604A000C0000033000B583B000230193F6
:100A780001AA4FF400414FF0406000F095F930B9F9
:100A8800054B1B6F019A9A4202D0062000E0012014
:100A980003B05DF804FB00BF0080000C70B588B09F
:100AA8000446002300930193029303930493059350
:100AB80006930793C0682268194B9A4203D004250D
:100AC800284608B070BD6A46616800F091F905468D
:100AD80010BB202204F110016846FFF7F7FBE8B9C4
:100AE8003034104B22462021684600F0F5F80728DC
:100AF80001D00225E4E7202200216846FFF716FC12
:100B08004026324600210748FFF710FC32460021F4
:100B18002046FFF70BFCD3E70125D1E70325CFE7F4
:100B2800EFBEADDE3080000C10B5C268184B9A607D
:100B3800C3681A6882F388885C6864086400204681
:100B4800214622462346B7EE000AF7EE000AB7EE22
:100B5800001AF7EE001AB7EE002AF7EE002AB7EEF1
:100B6800003AF7EE003AB7EE004AF7EE004AB7EE61
:100B7800005AF7EE005AB7EE006AF7EE006AB7EED1
:100B8800007AF7EE007AFFF725FC0B2010BD00BFB6
:100B980000ED02E040285AD870B58AB004460E46E7
:100BA800154600F027FC06908DF81C408DF81D6056
:100BB800089500230993059305AA0C2106A800F0BF
:100BC800F3F8044610B101200AB070BD01F0FCFD35
:100BD800214B1D6805F5401505F52075AD012B68FD
:100BE800B3F1FF3F0FD1072C15D806AB03EBC403B5
:100BF800D3E9002305EBC401012001F063FE30B9FD
:100C08000134E4B2EFE701F005FE0420DCE701F06F
:100C180001FE0120D8E701F0FDFD0F4A13680133FA
:100C280003F00F03136001AC28686968AA68EB68D1
:100C38000FC4002300936A460C2101A800F0B4F801
:100C480038B9049A009B9A42BED00420BCE702201F
:100C580070470120B8E700BFF800003010B582B037
:100C6800194B1B785BBB1948194B036000230371B0
:100C7800184BDA6C42F40022DA64DB6C03F40023CC
:100C88000193019B02F033FC044650B1114AD36C26
:100C980023F40023D364032801D0042410E006249D
:100CA8000EE00A4802F06FFC012803D1064B01222E
:100CB8001A7005E0054802F049FC042400E003240A
:100CC800204602B010BD00BFFC000030000100301B
:100CD80000200C5200100250F0B58FB0002842D00E
:100CE80014461D460746002A3FD0002B3FD0202936
:100CF80003D0022630460FB0F0BD1F4802F043FC77
:100D08000646012801D00326F4E700F061F8002820
:100D1800F0D0C26B01924268029242690392C268A3
:100D2800049202680592826A0692026B07920895FD
:100D3800203509950A9420340B940C97836B0D93F6
:100D48004FF47A7201A90C4802F09CFD28B10328DF
:100D580001D00526CEE70626CCE7074802F00BFCB3
:100D680038B10726C6E70226C4E70226C2E70226EC
:100D7800C0E70826BEE700BF0001003008B50848F4
:100D8800084B0360002303714371436183610123AE
:100D9800036203F085FD00B908BD0320FCE700BF2E
:100DA8000C0100300030025058B110B50B46144603
:100DB800014642B11A46054803F0B2FD2060002002
:100DC80010BD022070470220FAE700BF0C01003076
:100DD800004870477C4A000C08B50448202303608B
:100DE80002F050FA00B908BD0120FCE730010030DC
:100DF800C0B130B583B00D4614460146A2B1ADB1BD
:100E08004FF0FF33009313462A460B4802F050FB7D
:100E180078B94FF0FF322146074802F055FB30B150
:100E2800022004E003207047032000E0042003B000
:100E380030BD0220FBE700BF30010030FEE7FEE7CF
:100E4800FEE7FEE7FEE7FEE770477047704708B524
:100E580000F0C4FA08BD000008B5024802F0D6FD4B
:100E680008BD00BF4400003000B585B0104B1A6EB5
:100E780042F001021A661A6E02F001020192019A0A
:100E88009A6D42F080529A659A6D02F080520292F1
:100E9800029A9A6C42F480029A649B6C03F4800371
:100EA8000393039B01F0AEFE05B05DF804FB00BFA1
:100EB800001002500268094B9A4200D0704782B075
:100EC800A3F500539A6C42F480529A649B6C03F425
:100ED80080530193019B02B0704700BF003002505D
:100EE80082B0064BDA6C42F40032DA64DB6C03F44D
:100EF80000330193019B02B0704700BF00100250FD
:100F08000268084B9A4200D0704782B0064BDA6CF0
:100F180042F40012DA64DB6C03F400130193019BC2
:100F280002B0704700500C52001002500268084B83
:100F38009A4200D0704782B0064BDA6C42F4002225
:100F4800DA64DB6C03F400230193019B02B0704761
:100F580000200C52001002500268054B9A4200D043
:100F68007047044AD36C23F40023D364F8E700BF26
:100F780000200C520010025010B5A6B0044694226E
:100F8800002101A8FFF7D2F922680D4B9A4201D03F
:100F980026B010BD4FF48023019301A801F042F957
:100FA80050B9084BDA6C42F48022DA64DB6C03F443
:100FB80080230093009BEBE7FFF72EFCF1E700BFCF
:100FC80000080C520010025010B5ACB004460021C5
:100FD8002791289129912A912B91942202A8FFF711
:100FE800A5F922681C4B9A4201D02CB010BD0123F0
:100FF800029302230F9302A801F014F948BB174B80
:101008001A6E42F480421A661A6E02F48042009206
:10101800009ADA6C42F00102DA64DB6C03F0010337
:101028000193019B4FF4C063279302232893002464
:1010380029942A9407232B9327A9094801F07AFCBD
:10104800224621463D2001F093FE3D2001F0A0FEFE
:10105800CBE7FFF7E1FBD2E7003801500010025060
:101068000000025211B1A8B3012836D0704671466B
:1010780072467346B7EE000AF7EE000AB7EE001A9A
:10108800F7EE001AB7EE002AF7EE002AB7EE003A9C
:10109800F7EE003AB7EE004AF7EE004AB7EE005A0C
:1010A800F7EE005AB7EE006AF7EE006AB7EE007A7C
:1010B800F7EE007A8EF3008C10B4F1EE10CA4FF6FA
:1010C8006074C0F6FF740CEA040CE1EE10CA10BCA0
:1010D800F4467447024A1160C8E7024A1160C5E73E
:1010E800780100307401003000B583B001904FF0F2
:1010F800FF33012201A91D4803F0A4F803B05DF8ED
:1011080004EB7046714672467346B7EE000AF7EE76
:10111800000AB7EE001AF7EE001AB7EE002AF7EE4B
:10112800002AB7EE003AF7EE003AB7EE004AF7EEBB
:10113800004AB7EE005AF7EE005AB7EE006AF7EE2B
:10114800006AB7EE007AF7EE007A8EF3008C10B4DE
:10115800F1EE10CA4FF66074C0F6FF740CEA040C86
:10116800E1EE10CA10BCF446744700BF44000030DA
:1011780008B500224FF480511C4801F0BFFCBDE8BF
:1011880008407046714672467346B7EE000AF7EE9D
:10119800000AB7EE001AF7EE001AB7EE002AF7EECB
:1011A800002AB7EE003AF7EE003AB7EE004AF7EE3B
:1011B800004AB7EE005AF7EE005AB7EE006AF7EEAB
:1011C800006AB7EE007AF7EE007A8EF3008C10B45E
:1011D800F1EE10CA4FF66074C0F6FF740CEA040C06
:1011E800E1EE10CA10BCF446744700BF0018025262
:1011F80008B501224FF480511C4801F07FFCBDE87E
:1012080008407046714672467346B7EE000AF7EE1C
:10121800000AB7EE001AF7EE001AB7EE002AF7EE4A
:10122800002AB7EE003AF7EE003AB7EE004AF7EEBA
:10123800004AB7EE005AF7EE005AB7EE006AF7EE2A
:10124800006AB7EE007AF7EE007A8EF3008C10B4DD
:10125800F1EE10CA4FF66074C0F6FF740CEA040C85
:10126800E1EE10CA10BCF446744700BF00180252E1
:1012780008B5002208211C4801F040FCBDE80840E0
:101288007046714672467346B7EE000AF7EE000ADA
:10129800B7EE001AF7EE001AB7EE002AF7EE002AAA
:1012A800B7EE003AF7EE003AB7EE004AF7EE004A1A
:1012B800B7EE005AF7EE005AB7EE006AF7EE006A8A
:1012C800B7EE007AF7EE007A8EF3008C10B4F1EEE8
:1012D80010CA4FF66074C0F6FF740CEA040CE1EE15
:1012E80010CA10BCF4467447000C025208B501221B
:1012F80008211C4801F002FCBDE808407046714610
:1013080072467346B7EE000AF7EE000AB7EE001A07
:10131800F7EE001AB7EE002AF7EE002AB7EE003A09
:10132800F7EE003AB7EE004AF7EE004AB7EE005A79
:10133800F7EE005AB7EE006AF7EE006AB7EE007AE9
:10134800F7EE007A8EF3008C10B4F1EE10CA4FF667
:101358006074C0F6FF740CEA040CE1EE10CA10BC0D
:10136800F4467447000C0252104B1B780BB901204D
:10137800704710B504464FF47A70B0FBF3F30C4A8B
:101388001068B0FBF3F001F007FD68B9072C01D92C
:1013980001200AE0002221464FF0FF3001F0E8FC6E
:1013A800044B1C60002000E0012010BD000000304C
:1013B800240000300400003010B5042001F0C6FC01
:1013C80003F05AF90020FFF7CFFF10B1012420469F
:1013D80010BD0446FFF748FDF9E70000034B1B78F2
:1013E800034A11680B441360704700BF00000030C7
:1013F8007C010030014B1868704700BF7C01003049
:101408001F4AD36803F00303D268C2F30312013200
:10141800022B0DD0032B15D0012B1DD00020184B0B
:10142800DB68C3F3416301335B00B0FBF3F0704743
:101438001448B0FBF2F0124BDB68C3F3062303FB3E
:1014480000F0ECE71048B0FBF2F00D4BDB68C3F39B
:10145800062303FB00F0E2E7094B1B6813F0080FB3
:1014680008D1074BD3F89430C3F30323074A52F843
:101478002300D4E7024B1B68C3F30313F6E700BF4E
:10148800001002500024F40000127A00284C000CCE
:1014980030B583B00446214B9B6D13F0805F0CD0B0
:1014A80001F0A0FBD0B1B0F5007F17D0802C2CD86C
:1014B8002DD0702C2DD0002117E0184DAB6D43F0C6
:1014C8008053AB65AB6D03F080530193019B01F032
:1014D80089FBAB6D23F08053AB65E3E7802C03D920
:1014E800A02C10D9022100E000210D4A136823F036
:1014F8000F030B431360136803F00F038B420AD1E9
:10150800002003B030BD0121EFE70321EDE7022100
:10151800EBE70121E9E70120F3E700BF00100250E3
:1015280000200250314A9368D26802F0030213F097
:101538000C030AD00C2B06D0042B1FD0082B20D06C
:101548000020014610E0012AF6D1284A126812F05C
:10155800080F0CD1254AD2F89420C2F3032224495B
:1015680051F8221043B100200C2B0DD070471F4AB0
:101578001268C2F30312F2E70846F5E71D48002196
:10158800F2E71D480021EFE7184BDA6802F0030282
:10159800DB68C3F303130133022A0AD0032A1AD0E3
:1015A800B1FBF3F1114BD868C0F3062001FB00F042
:1015B80008E01048B0FBF3F00C4BDB68C3F30623DC
:1015C80003FB00F0094BDB68C3F3416301335B00A5
:1015D800B0FBF3F0CAE70848B0FBF3F0034BDB6855
:1015E800C3F3062303FB00F0ECE700BF0010025032
:1015F800284C000C0024F40000127A0008B5FFF70C
:1016080091FF044B9B68C3F30313034AD35CD84090
:1016180008BD00BF00100250704C000C002800F0FC
:10162800B483F0B583B004469D4B9D6805F00C0566
:10163800DE6806F00306036813F0100F56D00DB3EA
:101648000C2D1DD0E369002B00F0BC80944A136870
:1016580043F001031360FFF7CDFE0746904B1B686C
:1016680013F0020F40F09B80FFF7C4FEC01B022856
:10167800F4D98B4B1B6813F0020FEFD103208FE3D3
:10168800012EDFD1864B1B6813F0020F03D0E369EC
:10169800002B00F07C83606A814B1B6813F0080FF5
:1016A80057D07F4B1B6803F0F003984258D87C4B07
:1016B8001A6842F008021A601A6822F0F002616A99
:1016C8000A431A605A6822F47F42216A42EA0122D8
:1016D8005A60002D5CD0FFF791FF724B1860724B77
:1016E8001868FFF741FE002840F05A83236813F07A
:1016F800010F00F08B80082D7FD00C2D7BD0636804
:10170800B3F5803F00F0A780B3F5A02F00F0A980C3
:10171800634B1A6822F480321A601A6822F4802215
:101728001A606368002B00F0A680FFF763FE074687
:101738005B4B1B6813F4003F68D1FFF75BFEC01BCF
:101748006428F5D9564B1B6813F4003FF0D10320E9
:1017580026E3534BD3F894301B0903F0F003A4E7B6
:10176800FFF796FE002840F014834D4B1A6842F0AC
:1017780008021A601A6822F0F002616A0A431A60C5
:101788005A6822F47F42216A42EA01225A60A2E79B
:10179800606AFFF77DFE00289DD0012000E3404BE2
:1017A8001A6842F008021A601A6822F0F002616AA8
:1017B8000A431A605A6822F47F42216A42EA0122E7
:1017C8005A6093E7364A136823F001031360FFF762
:1017D80011FE0746324B1B6813F0020F86D0FFF745
:1017E80009FEC01B0228F5D92D4B1B6813F0020F08
:1017F800F0D00320D4E2032E81D1294B1B6813F4C7
:10180800003F03D06368002B00F0C582236813F003
:10181800020F5ED0042D4BD00C2D47D0E368002B6F
:1018280000F08E801E4A136843F480731360FFF73C
:10183800E1FD05461A4B1B6813F4806F77D1FFF75B
:10184800D9FD401B0228F5D9154B1B6813F4806F8E
:10185800F0D10320A4E2124A136843F480331360E2
:101868005FE70F4B1A6842F480221A601A6842F444
:1018780080321A6055E7FFF7BDFD0746084B1B6825
:1018880013F4003FC2D0FFF7B5FDC01B6428F5D99B
:10189800034B1B6813F4003FF0D0032080E200BF25
:1018A800001002502400003004000030022EB5D190
:1018B800A94B1B6813F4806F03D0E368002B00F07A
:1018C8006C82A54A536823F0FE43216943EA016309
:1018D8005360236813F0080F70D06369002B50D051
:1018E800A369002B45D19C4AD2F8943023F0100309
:1018F800C2F89430984AD2F8943043F00103C2F801
:101908009430FFF777FD0546934BD3F8943013F0E6
:10191800020F53D1FFF76EFD401B0728F4D98E4BF9
:10192800D3F8943013F0020FEED1032038E28A4A3C
:10193800536823F0FE43216943EA01635360C8E713
:10194800854A136823F480731360FFF753FD054637
:10195800814B1B6813F4806FBBD0FFF74BFD401B16
:101968000228F5D97C4B1B6813F4806FF0D0032054
:1019780016E2794AD2F8943043F01003C2F8943052
:10198800B8E7754AD2F8943023F00103C2F89430CE
:10199800FFF730FD0546704BD3F8943013F0020F73
:1019A8000CD0FFF727FD401B0728F4D96A4BD3F862
:1019B800943013F0020FEED00320F1E1236813F006
:1019C800040F00F0F080644B9B6D13F0805F24D10E
:1019D800614B9A6D42F080529A659B6D03F080537B
:1019E8000193019B01255D4B1B6813F4807F16D082
:1019F800A36813F0010F33D013F0040F28D0564B0F
:101A0800D3F8902042F00402C3F89020D3F8902035
:101A180042F00102C3F890202FE00025E3E74F4A87
:101A2800136843F480731360FFF7E4FC06464B4BDE
:101A38001B6813F4807FDBD1FFF7DCFC801B0228D6
:101A4800F5D9464B1B6813F4807FF0D10320A7E13A
:101A5800414AD2F8903043F00103C2F890300CE0CC
:101A68003D4BD3F8902022F00102C3F89020D3F820
:101A7800902022F00402C3F89020A368002B53D0D2
:101A8800FFF7B8FC0646344BD3F8903013F0020F3A
:101A98000ED1FFF7AFFC801B41F288339842F2D990
:101AA8002D4BD3F8903013F0020FECD1032077E1DF
:101AB800A36813F0800F1BD0274AD2F8903043F068
:101AC8008003C2F89030244BD3F8903013F4006FA1
:101AD80068D1FFF78FFC801B41F288339842F2D916
:101AE8001D4BD3F8903013F4006FECD1032057E16D
:101AF800194AD2F8903023F08003C2F89030164B80
:101B0800D3F8903013F4006F4CD0FFF773FC801BB0
:101B180041F288339842F2D90F4BD3F8903013F43E
:101B2800006FECD003203BE1FFF764FC06460A4B4C
:101B3800D3F8903013F0020F12D0FFF75BFC801B34
:101B480041F288339842F2D9034BD3F8903013F01E
:101B5800020FECD0032023E1001002500070005067
:101B6800974BD3F8903013F0800F1BD0944AD2F8DB
:101B7800903023F08003C2F89030914BD3F8903026
:101B880013F4006F0ED0FFF735FC801B41F2883349
:101B98009842F2D98A4BD3F8903013F4006FECD006
:101BA8000320FDE015BB236813F0200F41D0A36A82
:101BB80013B3834AD2F8983043F00103C2F898303F
:101BC800FFF718FC05467E4BD3F8983013F0020F48
:101BD8002FD1FFF70FFC401B0228F4D9784BD3F81C
:101BE800983013F0020FEED10320D9E0744A936DB8
:101BF80023F080539365D6E7714AD2F8983023F0E2
:101C08000103C2F89830FFF7F5FB05466C4BD3F893
:101C1800983013F0020F0CD0FFF7ECFB401B0228A2
:101C2800F4D9674BD3F8983013F0020FEED00320A5
:101C3800B6E0E36A002B00F0B280614A926802F0D5
:101C48000C020C2A73D0022B18D05D4A136823F0BB
:101C580080731360FFF7CEFB0446594B1B6813F0E3
:101C6800007F5DD0FFF7C6FB001B0228F5D9544B57
:101C78001B6813F0007FF0D0032091E0504A1368EE
:101C880023F080731360FFF7B5FB05464C4B1B68C8
:101C980013F0007F0BD0FFF7ADFB401B0228F5D9EE
:101CA800474B1B6813F0007FF0D0032078E0444ACC
:101CB800D36844491940236B606B013843EA001329
:101CC800A06B43EA0023206C4008013843EA4053E4
:101CD800606C4008013843EA4063E06B43EAC06344
:101CE8001943D160136843F080731360D36843F0DD
:101CF8008073D360FFF77EFB0446314B1B6813F0FB
:101D0800007F0BD1FFF776FB001B0228F5D92C4B7F
:101D18001B6813F0007FF0D1032041E000203FE072
:101D2800274AD168284B0B40D360002038E0012BAC
:101D380038D0234BDB6803F00301226B914233D187
:101D480003F0F002616B0139B2EB011F2ED103F4ED
:101D5800FE42A16BB2EB012F2AD103F07842E16B6E
:101D6800B2EBC16F26D103F4C001226C5208013ACC
:101D7800B1EB425F20D103F0C063626C5208013AB4
:101D8800B3EB426F1AD100200AE00120704701200E
:101D980006E0012004E0012002E0012000E000202C
:101DA80003B0F0BD0120FBE70120F9E70120F7E7C8
:101DB8000120F5E70120F3E70120F1E70120EFE733
:101DC800001002500C809F01FCFFEEFE002800F07E
:101DD800E680F8B50D460446754B1B6803F00F0303
:101DE8008B420BD2724A136823F00F030B43136024
:101DF800136803F00F038B4240F0D380236813F07D
:101E0800020F0CD0A2686B4B9B6803F0F0039A4258
:101E180005D968498B6823F0F0031A438A60236860
:101E280013F0010F73D06368032B0AD0022B22D062
:101E3800002B39D15F4B1B6813F0020F21D1012011
:101E4800A6E05C4B1B6813F0007F01D101209FE0E6
:101E5800FFF7D6FA584B98422DD9564B9B6813F08A
:101E6800F00F2AD1534A936823F0F00343F080031C
:101E78009360802724E04F4B1B6813F4003F00F069
:101E88009280FFF74FFB4C4B984218D9494B9B68FF
:101E980013F0F00F37D1474A936823F0F00343F06B
:101EA8008003936080270BE0424B1B6813F4806F1C
:101EB800E7D101206CE0002702E0002700E00027BE
:101EC8003C4A936823F0030361680B439360FFF770
:101ED80091FA0646374B9B6803F00C036268B3EB34
:101EE800820F12D0FFF786FA801B41F2883398429E
:101EF800F0D9304B9B6803F00C036268B3EB820F98
:101F0800E8D0032044E00027DAE7002F41D1236816
:101F180013F0020F0CD0A268264B9B6803F0F00365
:101F28009A4205D223498B6823F0F0031A438A604A
:101F38001F4B1B6803F00F03AB420AD91C4A1368F6
:101F480023F00F032B431360136803F00F03AB4216
:101F58002BD1236813F0040F06D0164A936823F494
:101F6800E063E1680B439360236813F0080F07D020
:101F7800104A936823F46053216943EAC1039360CC
:101F8800FFF73CFB0D4B18600D4B1868FFF7ECF999
:101F9800F8BD084A936823F0F0039360B7E701207F
:101FA80070470120F4E70120F2E70120F0E700BFC5
:101FB800002002500010025000B4C4042400003075
:101FC8000400003008B5FFF719FB044B9B68C3F306
:101FD8000223034AD35CD84008BD00BF001002505A
:101FE800684C000C08B5FFF709FB044B9B68C3F36A
:101FF800C223034AD35CD84008BD00BF001002507A
:10200800684C000C70B504460E460368022B51D08C
:10201800032B56D0012B01D0012070BD2F4B1B681C
:1020280013F0020F54D02D4A136823F08053136025
:10203800FFF7E0F90546294B1B6813F0005F09D04C
:10204800FFF7D8F9431B022BF5D9244B1B6813F073
:10205800005F3FD186B921484369214A1A40A168E7
:10206800E368DB0643EA01236168013943EA0113A7
:1020780021680B431A434261184A136843F080539E
:102088001360FFF7B7F90546144B1B6813F0005FA0
:1020980009D1FFF7AFF9431B022BF5D90F4B1B688A
:1020A80013F0005F18D00D4A536921690B4353613F
:1020B8000020B2E7094B1B6813F4806FB3D10120ED
:1020C800ABE7064B1B6813F4C02FACD10120A4E783
:1020D8000120A2E70320A0E703209EE7001002509A
:1020E8000C80FF0770B504460E460368022B52D0D9
:1020F800032B57D0012B01D0012070BD454B1B6825
:1021080013F0020F7FD0434A136823F080631360F3
:10211800FFF770F905463F4B1B6813F0006F09D0B5
:10212800FFF768F9431B022BF5D93A4B1B6813F0EC
:10213800006F6AD1002E3CD136480369364A1A40EE
:10214800A168E368DB0643EA01236168013943EAD1
:10215800011321680B431A4302612E4A136843F0A6
:1021680080631360FFF746F905462A4B1B6813F096
:10217800006F09D1FFF73EF9431B022BF5D9254B18
:102188001B6813F0006F42D0224A1369A1690B4300
:1021980013610020B1E71F4B1B6813F4806FB2D1A5
:1021A8000120AAE71B4B1B6813F4C02FABD10120F9
:1021B800A3E7012E13D017480369184A1A40A168EB
:1021C80063695B08013B5B0643EA012361680139E7
:1021D80043EA011321680B431A430261BDE70D4826
:1021E80003690F4A1A40A16823695B08013B5B0534
:1021F80043EA01236168013943EA011321680B436B
:102208001A430261A9E7012077E7032075E7032055
:1022180073E700BF001002500C80FF070C80FFF925
:102228000C809FFF2DE9F04182B00446036813F447
:10223800006F34D0C36E402B1FD00BD823B3202B94
:1022480005D100212030FFF7DDFE064621E00127F9
:102258003E4626E0602B20D0802B0BD10026694A11
:10226800D2F89C3023F0E003E16E0B43C2F89C30B7
:10227800002716E001273E4613E0624AD36843F47C
:102288008033D3600026EAE700210430FFF72AFFF5
:102298000646002EE3D0374603E00026DFE7002796
:1022A8003E46236813F4805F33D0236FB3F5007F75
:1022B80022D00DD833B3B3F5807F06D1002104F1C5
:1022C8002000FFF79FFE064608E001273E4620E073
:1022D800B3F5407F02D0B3F5806F0AD1C6B9494A39
:1022E800D2F89C3023F4E063216F0B43C2F89C3092
:1022F8000FE001273E460CE0424AD36843F480339E
:10230800D360EBE70021201DFFF7ECFE0646E5E76A
:102318003746236813F4003F7DD03A4B9B6D13F08A
:10232800805F4FD1374B9A6D42F080529A659B6D12
:1023380003F080530193019B4FF00108324A136860
:1023480043F480731360FFF755F805462E4B1B685E
:1023580013F4807F09D1FFF74DF8401B0228F5D907
:10236800294B1B6813F4807F48D0002E4ED1254B93
:10237800D3F8903013F4407316D0D4F890209A42D2
:1023880012D0204AD2F8903023F44073D2F890103B
:1023980041F48031C2F89010D2F8901021F48031C5
:1023A800C2F89010C2F8903013F0010F0DD1154A01
:1023B800D2F8903023F44073D4F890100B43C2F84D
:1023C800903024E04FF00008B8E7FFF713F805460F
:1023D8000C4BD3F8903013F0020FE8D1FFF70AF84E
:1023E800401B41F288339842F2D9064BD3F890301B
:1023F80013F0020FDBD103273E4608E003273E46D1
:1024080005E000BF00100250007000503746B8F1D8
:10241800000F40F05181236813F0010F08D0B84A2B
:10242800D2F8883023F00303616B0B43C2F888307D
:10243800236813F0020F08D0B14AD2F8883023F08D
:102448000C03A16B0B43C2F88830236813F0040F08
:1024580008D0AB4AD2F8883023F03003E16B0B4345
:10246800C2F88830236813F0080F08D0A44AD2F8BD
:10247800883023F0C003216C0B43C2F888302368EE
:1024880013F0100F08D09E4AD2F8883023F4407316
:10249800616C0B43C2F88830236813F0200F08D012
:1024A800974AD2F8883023F44063A16C0B43C2F8F2
:1024B8008830236813F4007F08D0914AD2F8883016
:1024C80023F44023E16D0B43C2F88830236813F4EA
:1024D800806F08D08A4AD2F8883023F44013216EDE
:1024E8000B43C2F88830236813F4800F08D0844A5D
:1024F800D2F8883023F44003616E0B43C2F8883069
:10250800236813F0007F0CD0A36EB3F1807F00F036
:10251800D980B3F1007F00F0E580002B00F0D78070
:102528000127236813F0400F08D0754AD2F8883085
:1025380023F44053E16C0B43C2F88830236813F04E
:10254800800F08D06E4AD2F8883023F44043216DBA
:102558000B43C2F88830236813F4807F08D0684A98
:10256800D2F8883023F44033616D0B43C2F88830C9
:10257800236813F4801F08D0614AD2F89C3023F0F6
:102588000303A16D0B43C2F89C30236813F4005F6A
:1025980011D05B4AD2F8883023F04063616F0B4357
:1025A800C2F88830636FB3F1006F00F0A380B3F115
:1025B800806F00F0A780236813F4002F1FD0A36F4B
:1025C800B3F5804F00F0A7804D4AD2F8881021F06B
:1025D80040610B43C2F88830D2F89C3023F4804322
:1025E800C2F89C30A36FB3F1806F00F09C80B3F108
:1025F800006F00F0A180B3F5804F00F0A38023683E
:1026080013F4802F11D03E4AD2F8883023F040636B
:10261800E16F0B43C2F88830E36FB3F1006F00F04D
:102628009780B3F1806F00F09880236813F4804F8F
:102638000FD0334AD2F8883023F04053D4F88010B2
:102648000B43C2F88830D4F88030B3F1805F00F0D3
:102658008D80236813F4803F09D0294AD2F89C3032
:1026680023F00403D4F884100B43C2F89C30236889
:1026780013F4001F09D0224AD2F89C3023F0180323
:10268800D4F888100B43C2F89C30236813F0807F7D
:102698000ED01B4AD2F89C3023F44013D4F88C1087
:1026A8000B43C2F89C30D4F88C30B3F5001F66D0C9
:1026B800384602B0BDE8F081114A936D23F080538B
:1026C8009365A8E60E4AD36843F48013D3607EB9B5
:1026D8000B4AD2F8883023F04073A16E0B43C2F83E
:1026E80088301EE70021201DFFF7FCFC0646EEE7B8
:1026F800374616E7D36843F48013D3605BE700BF1F
:10270800001002500121201DFFF7ECFC00283FF4C7
:1027180052AF07464FE71C4AD2F89C3043F4804337
:10272800C2F89C305EE70121201DFFF7DBFC002882
:102738003FF465AF074662E7134AD36843F4801352
:10274800D3605CE7104AD36843F48033D36056E71C
:10275800D36843F48013D36067E70121201DFFF796
:10276800C1FC00283FF461AF07465EE70221201D47
:10277800FFF7B8FC00283FF46CAF074669E7D36859
:1027880043F48013D36093E70010025010B40B4950
:102798008968002910DB0A4CEFF3108C72B62168A7
:1027A80041F0010121600260BFF36F8F43608CF339
:1027B80010885DF8044B7047024CEDE708000030C4
:1027C8002C20025028200240104B9B6A002B05DB6E
:1027D8000E4BDB6A002B0CDB002070470B4B0C4ABE
:1027E8009A6002F188329A609B6A002BF0DA012025
:1027F8007047064B064ADA6002F18832DA60DB6A13
:10280800002B01DB00207047012070470020025098
:1028180023016745084B9A6A42F000429A629B6A14
:10282800002B01DB01207047034BDA6A42F00042BB
:10283800DA62DB6A002070470020025038B504468F
:10284800FEF7D8FD05191B4B5B6A13F4803F08D0CF
:10285800B4F1FF3FF7D0FEF7CDFDA842F3D3032034
:1028680024E0154B9B68002B11DB14490B6803F01F
:10287800FA03104A126A02F40052134309D10B6892
:1028880013F0010F13D001230B6000200EE00C4958
:10289800ECE7094842681A4342600B6013F4005F92
:1028A80003D0044B4FF400521A62012038BD0020B7
:1028B800FCE700BF0020025008000030242002502E
:1028C80020200240F8B51E46174B1B78012B28D054
:1028D80004460D461746144B01221A7000225A600E
:1028E8004FF47A70FFF7AAFFA8B90F4B9C60002C31
:1028F80015DB0E4C3A4633462846FFF747FF4FF4A0
:102908007A70FFF79BFF2368074A926822F000421B
:1029180023EA02032360044B00221A70F8BD044C1A
:10292800E8E70220FAE700BF080000302C20025038
:1029380028200240F0B5002365E085685E00032486
:10294800B44025EA0405CC68B4402C43846045684B
:1029580025EA0C054C68C4F300149C402C434460E1
:1029680062E0DD08083550F8254003F0070C4FEA0F
:102978008C0C4FF00F0E0EFA0CFE24EA0E0E0C69AA
:1029880004FA0CF444EA0E0440F8254063E00624F7
:1029980000E0002404FA0EF42C43564D0CF1180CF8
:1029A80045F82C402D68D44325EA02064F6817F4F1
:1029B800801F01D042EA05064E4D2E606D6804EA7C
:1029C80005064F6817F4001F01D042EA0506494D75
:1029D8006E60D5F8845004EA05064F6817F4003F86
:1029E80001D042EA0506434DC5F88460D5F8805009
:1029F8002C404E6816F4803F01D042EA05043D4A57
:102A0800C2F8804001330A6832FA03F471D04FF0FB
:102A1800010C0CFA03FC1CEA0202F3D04C6804F027
:102A28000304013C012C88D94C6804F00304032CEE
:102A38000CD0C4685D004FF0030C0CFA05FC24EAC6
:102A48000C0C8C68AC4044EA0C04C4604C6804F07C
:102A58000304022C85D004684FEA430E4FF0030CA0
:102A68000CFA0EFC24EA0C0C4C6804F0030404FA7B
:102A78000EF444EA0C0404604C6814F4403FC1D0DE
:102A88004FEA930C0CF118051A4C54F8255003F032
:102A9800030E4FEACE0E0F2404FA0EF425EA0405BD
:102AA800154CA0423FF475AF04F58064A04216D0DF
:102AB80004F58064A04214D004F58064A04212D0CA
:102AC80004F58064A04210D004F58064A0420ED0C2
:102AD80004F58064A0423FF45AAF07245AE7012462
:102AE80058E7022456E7032454E7042452E7052450
:102AF80050E7F0BD00F40250000002520AB18161B3
:102B080070478162704790F82530DBB2022B06D0FF
:102B180004234364002380F82430012070470268AE
:102B2800136823F00E031360026D136823F4807397
:102B380013600268136823F001031360C36C03F089
:102B48001C02816C012393404B60436D826D5A6077
:102B5800C36D33B11A6822F480721A60036E426E34
:102B68005A60012380F82530002380F82430184665
:102B7800704708B590F82530DBB2022B03D0042348
:102B88004364012008BD0268136823F00E03136034
:102B98000268136823F001031360026D136823F4BD
:102BA80080731360C36C03F01C02816C0123934093
:102BB8004B60436D826D5A60C36D33B11A6822F45D
:102BC80080721A60036E426E5A60012380F82530C5
:102BD800002380F82430036C13B198470020D1E714
:102BE8000020CFE7024B186800F4C060704700BFB0
:102BF80000700050024A536843F4007353607047F2
:102C080000700050024A936843F480439360704711
:102C180000700050074B1B6913F4805006D113F461
:102C2800004F00D070474FF4004070474FF4805079
:102C3800F8E700BF0070005038B505461E4B1C6809
:102C4800FFF7E8FFB0F5004F2DD004F4C0641A4B2D
:102C5800DB6813F4004F28D1AC4228D0164A136819
:102C680023F4C0632B431360144B1B685B09144A9D
:102C7800A2FB0323DB09322202FB03F3114AA2FB66
:102C88000323DB08013300E0013B0B4A526912F4CD
:102C9800806F01D0002BF7D1074B5B6913F4806F6D
:102CA80007D1002038BD0120FCE70120FAE7002009
:102CB800F8E70320F6E700BF00700050240000305A
:102CC800C55A7C0ACDCCCCCC002807DB00F01F020B
:102CD800400901239340024A42F82030704700BF60
:102CE80000E100E0002808DB4901C9B200F16040BA
:102CF80000F5614080F80013704700F00F004901AB
:102D0800C9B2014B1954704714ED00E000B500F04A
:102D18000700C0F1070CBCF1030F28BF4FF0030CEC
:102D2800C31C062B0FD9031F4FF0FF3E0EFA0CF001
:102D380021EA000199400EFA03FE22EA0E0241EA56
:102D480002005DF804FB0023EEE70000074AD368A1
:102D580023F4E0631B041B0C000200F4E06003434F
:102D680043F0BF6343F40033D360704700ED00E0E5
:102D780010B50446054BD868C0F30220FFF7C6FF1C
:102D880001462046FFF7AEFF10BD00BF00ED00E092
:102D980008B5FFF799FF08BD0138B0F1807F0BD265
:102DA8004FF0E0235861054AE02182F82310002003
:102DB800986107221A6170470120704700ED00E012
:102DC800074B1B6813F0010F07D1054A136823F05E
:102DD800040303431360002070470120704700BFBD
:102DE80000040350034A136843F0010313600020F2
:102DF800704700BF00040350B1F5417F7CD210B486
:102E0800030F00F01F0202EB4314322C76D810F0A7
:102E1800200001D0002C75D1002837D040F20113D2
:102E28008B430BD011F4807F13D0394A13690023E8
:102E380013615369DB0CDB0453610AE0344A1369FC
:102E48004FF0FF33136153696FEAD3436FEAC3430B
:102E5800536140F202238B430BD011F4007F53D00F
:102E68002B4A136A00201062536ADB0CDB0453629E
:102E780045E0274A136A4FF0FF331362536A6FEA3B
:102E8800D3436FEAC3435362002038E02148184413
:102E9800800040F201148C430BD011F4807F10D0D5
:102EA80004684FF0010C0CFA02FC24EA0C040460DC
:102EB80007E004684FF0010C0CFA02FC44EA0C0429
:102EC800046015481844800040F202238B430BD05D
:102ED80011F4007F1AD00368012101FA02F223EAF3
:102EE8000203036000200AE00368012101FA02F2EC
:102EF80013430360002002E00120704701205DF8C1
:102F0800044B70470120FAE70020F8E70020F6E7B5
:102F18000024035004C9001408C90014B0F1005F6C
:102F280009D0B0F1405F06D0244B984203D003F19A
:102F3800805398423CD10B6813B1B3F1004F39D19B
:102F48004A6812B1B2F1804F36D110B543EA020E89
:102F5800B0F1005F0DD0B0F1405F06D04FF4803C77
:102F6800174C4FEA5C3C00230FE04FF4403C154CF3
:102F7800F7E74FF4403C134CF3E79A1C51F8220052
:102F880003F1400244F8220001336345F5D3236876
:102F980023F0404343EA0E032360012202FA0CF2B5
:102FA8002369524213408A6E13432361002010BDE7
:102FB800012070470120704701207047000003205E
:102FC80000300350002C0350103910295BD8DFE87B
:102FD80001F0095A5A5A175A5A5A5A5A5A5A285AD2
:102FE8005A5A4000284BDA6812BA02601A6912BAB3
:102FF80042605A6912BA82609B691BBAC360704703
:10300800214BDA6812BA02601A6912BA42605A6928
:1030180012BA82609A6912BAC260DB691BBA03618C
:103028007047194BDA6812BA02601A6912BA42601C
:103038005A6912BA82609A6912BAC260DB691BBA0D
:103048000361124A536A1BBA4361936A1BBA8361CC
:1030580070470D4BDA6812BA02601A6912BA4260F8
:103068005A6912BA82609A6912BAC260DB691BBADD
:103078000361064B5A6A12BA42619A6A12BA8261AD
:10308800DB6A1BBAC361704700040C5200070C527C
:103098002DE9F04107460C4690461D46FEF7AAF971
:1030A8000646B8F1000F1BD042E0FEF7A3F9801BDB
:1030B800A84200D8A5B9012387F83530032087F83E
:1030C8002C00002387F8343015E01F4B1B6834EAC6
:1030D800030314BF0123002363B1B5F1FF3FE4D11B
:1030E800082CF2D8184B5B6A34EA030314BF012397
:1030F8000023F1E74046BDE8F081FEF77BF9801B2D
:10310800A84200D8A5B9012387F83530032087F8ED
:103118002C00002387F83430EDE70B4B1B6834EAAA
:1031280003030CBF0123002363B1B5F1FF3FE4D1D2
:10313800082CF2D8044B5B6A34EA03030CBF012362
:103148000023F1E70020D6E700040C522DE9F041F6
:1031580082B0074616460191002405E0484B5B6A99
:1031680013F0010F22D10134B4EB960F42D2019B28
:103178001968434B5960019B0433019397F8365003
:10318800012DF0D1631C4FEA8308B6EB830FEAD90F
:10319800A3003F2BE2D94FF47A7301220821384665
:1031A800FFF776FF0028D9D0032564E0002387F8CD
:1031B800363097F82D30022B0CD0042B0AD0032B75
:1031C80012D0052B10D0012387F83530002387F85B
:1031D800343050E0019BFB60A6EB08063E620823F2
:1031E80087F83530002546E0019B7B61A6EB080691
:1031F800BE62F4E716F003063CD03B68102B09D0FA
:10320800202B17D0302B15D0019B1A681C4B5A6005
:10321800002530E0022E03D8019B1A88184B5A600B
:10322800032E01D0002526E0019B1A68144B5A6032
:10323800002520E0012E05D0022E08D0032E0BD049
:10324800002518E0019B1A780D4B5A60F4E7019BA2
:103258001A880B4B5A60F1E7019B1B78019A527848
:1032680043EA0223019A927843EA0243044A5360EC
:10327800002500E00025284602B0BDE8F08100BF27
:1032880000040C5248B338B5044690F83530FBB109
:10329800022384F8353000202062E0616062A06378
:1032A80084F83700012184F82D1084F836000C4A80
:1032B800136823F0300325682B431360136823F445
:1032C8000053136084F82C0084F83510E06338BD8F
:1032D80080F83430FDF704FEDAE70120704700BFBC
:1032E80000040C52F8B504461E4690F835C05FFA43
:1032F8008CFCBCF1010F03D0BCF1080F40F08680B4
:1033080001B3FEB194F83430012B00F08180012321
:1033180084F8343094F82D30012B18D0022B5DD16D
:1033280094F83530DBB2082B55D03B48836823F03E
:103338001F0302F0030543EAC5038360022384F8F0
:1033480035301CE0012584F835502846F8BD0225A3
:1033580084F835503048036823F4A02323F0C403CD
:10336800079F3B4343F004030360836823F01F0374
:1033780002F0030C43EACC03836084F82D50204606
:10338800FFF7E4FE054684F82C000028DDD194F808
:103398003530DBB2082B33D01F4A936843F480736F
:1033A8009360069B002202212046FFF771FE88BB2E
:1033B800194B1A68194B1340CBB1174B1A68174BA6
:1033C8001340B3F5802F1FD0134B1A68134B934348
:1033D8000BD010210CE0E168226AAFE7012584F8E0
:1033E8003550002384F83430AFE7202100E0142161
:1033F8003046FFF7E9FD012384F8353084F82D3095
:10340800002384F83430A0E71C21F1E702259CE76B
:1034180002259AE7032598E700040C52800004006F
:1034280070B590F83550EDB2012D36D104460E46F0
:10343800A1B390F83430012B32D0012380F8343016
:10344800022180F8351013460022FFF721FE0546B9
:1034580040BB154B1A68154B13407BB1124B1A68C9
:10346800124B1340B3F5802F15D00F4B1A680F4B32
:10347800934301D0102102E0202100E014213046BE
:10348800FFF7A2FD012384F8353084F82D3000239E
:1034980084F8343002E01C21F1E70225284670BD8B
:1034A8000225FBE70325F9E700040C52800004001D
:1034B80010B582B0034C0194049C0094FFF712FFEE
:1034C80002B010BD8000040008B5FFF7A9FF08BDD1
:1034D80058B110B5044603791BB1012323710020AC
:1034E80010BD4371FDF70CFDF7E70120704758B395
:1034F80038B5044603799BB102232371FDF77AFF9F
:10350800054623681A6812F0010F0CD101221A60CF
:10351800FDF770FF401BB0F57A7FF2D9032003E076
:10352800FDF704FDE8E7002048B92268936843F4F2
:10353800D01393600023A3600123237138BD0423B3
:10354800A36003232371F9E70120704788B138B5D8
:10355800054602230371036800241C60026893680F
:1035680043F4D0139360FDF7F7FCAC602C71204650
:1035780038BD012070470368D3F8B0350BB9012076
:103588007047002070470079704770B505460C46B3
:1035980016462B685B6813F4003F0BD1B4F1FF3F6C
:1035A800F7D0FDF727FF801BA04205D8002CF0D1EB
:1035B800032000E0002070BD0320FCE70368586882
:1035C80010F4002000D002205A6812F4801F01D0A5
:1035D80040F00100242900D07047D3F8E83E002BC2
:1035E800FAD040F00800F7E739B1B1FA81F3C3F136
:1035F8002003013803EBC00070472023F7E70028B9
:1036080049D010B50446C9B34FF0000C14E0A2EB42
:103618008C00084410F8013C10F802EC43EA0E2331
:1036280010F803EC43EA0E4310F8040C43EA006375
:1036380044F82C300CF1010CBCEB920FE7D302F0EC
:103648000303012B13D0022B19D0032B16D1A2EBA5
:103658008C02114411F8013C11F8022C43EA0223B0
:1036680011F8032C43EA024344F82C3006E0A2EB9D
:103678008C020A4412F8013C44F82C3010BDA2EB2D
:103688008C020A4412F8013C12F8022C43EA022385
:1036980044F82C30F2E77047F8B50579EDB2012D02
:1036A80002D001252846F8BD04460F4616460223D7
:1036B800037100238360FDF79DFE024621680B68B5
:1036C80023F4D11323F4F85343EA07230B6021684A
:1036D8000B6843F002030B6031462046FFF755FFA5
:1036E80068B12268136823F001031360A36843F0EC
:1036F8000403A3602268136843F00103136039468A
:103708002046FFF75BFFA3680343A3602268936822
:1037180043F4D013936001232371A368002BC1D114
:103728000025BFE770B505460C460B6B066819788F
:103738002068FFF759FFC6F8040423692E68197832
:103748006068FFF751FFC6F8B4042B68A268C3F895
:103758005C2428686268E16800F58C60FFF74FFF19
:103768002A68636803339B0803F58C73002642F8C4
:10377800236028686268216900F59760FFF73FFFBA
:103788002A68636803339B0803F5977342F823603C
:1037980028686268616900F5BD60FFF730FF2A6834
:1037A800636803339B0803F5BD7342F823602868F8
:1037B8006268A16900F23C60FFF721FF2A6863682C
:1037C80003339B0803F28F1342F82360286862686A
:1037D800E16900F57460FFF712FF2A686368033334
:1037E8009B0803F5747342F8236028686268216AAD
:1037F80000F69470FFF703FF2A68636803339B0899
:1038080003F2E53342F8236028682268616A00F50C
:1038180084501830FFF7F3FE2A68236803339B08A7
:1038280003F2264342F8236028682268A16A00F65A
:103838004420FFF7E4FE2A68236803339B0803F259
:10384800912342F8236028682268E16A00F6E8704C
:10385800FFF7D5FE2A68236803339B0803F2FA337F
:1038680042F8236028682268216B00F65C50FFF755
:10387800C6FE2A68236803339B0803F2573342F8CD
:10388800236070BD38B504461546FFF74BFF2A463E
:1038980026212046FFF700FF38BD0000002867D02A
:1038A80038B50446437A002B34D002236372226869
:1038B800136823F0040313602268136823F080431D
:1038C80023F0200361680B4343F0804313602368AF
:1038D800284A1A6123684AF2B3221A6122681368D7
:1038E80023F080431360FDF785FD054623681A68B9
:1038F80012F0804F12D0FDF77DFD401B0228F5D94C
:1039080023681B6813F0804FF0D0012060720223F7
:10391800E3600FE00372FDF72FFBC6E71A6842F079
:1039280004021A6023685B6813F0400F03D0042375
:103938006372012038BDFDF75DFD054623685B68AD
:1039480013F0010F0FD1FDF755FD401B0228F5D9E3
:1039580023685B6813F0040FF0D00423637202231A
:10396800E3600120E6E7012363720020E060E1E7FD
:1039780001207047BC0A5917026852E8003F23F437
:10398800907342E800310029F6D1026802F1080379
:1039980053E8003F23F0805323F00103083242E844
:1039A80000310029F1D1C36E012B06D02023C0F8C5
:1039B8008C300023C36643677047026852E8003FB3
:1039C80023F0100342E800310029F6D1EEE77047F2
:1039D80008B5026852E8003F23F0400342E800318E
:1039E8000029F6D12023C0F8883000238367FFF729
:1039F800EEFF08BD704708B5806A0023A0F85E3066
:103A0800A0F85630FFF7F6FF08BD704770B50446BA
:103A18000268D3691068916840F60F0C13EA0C0F1E
:103A28000DD113F0200F10D010F0200F02D111F09B
:103A3800805F0AD0636F93B3204698472FE0B44D58
:103A48000D402DD1B34E30422AD1E56E012D00F044
:103A5800C08013F4801F03D011F4800F40F05E8102
:103A680013F0800F07D010F0800F40F05E8111F442
:103A7800000F40F05A8113F0400F03D010F0400FB0
:103A880040F05A8113F4000F03D010F0804F40F03B
:103A9800578113F0807F02D00028C0F2558170BD95
:103AA80013F0010F09D010F4807F06D001261662AA
:103AB800D4F890203243C4F8902013F0020F0BD0B2
:103AC80011F0010F08D0226802261662D4F890205F
:103AD80042F00402C4F8902013F0040F0BD011F048
:103AE800010F08D0226804261662D4F8902042F00C
:103AF8000202C4F8902013F0080F0BD010F0200F2A
:103B080000D13DB1226808251562D4F890202A43D7
:103B1800C4F8902013F4006F0CD010F0806F09D017
:103B280022684FF400651562D4F8902042F0200214
:103B3800C4F89020D4F89020002AB0D013F0200FB9
:103B480009D010F0200F02D111F0805F03D0636F0D
:103B58000BB120469847D4F8902023689B6813F04F
:103B6800400F02D112F0280F2CD02046FFF704FF97
:103B780023689B6813F0400F20D0226802F10803E5
:103B880053E8003F23F04003083242E8003100299F
:103B9800F3D1D4F880306BB15F4A1A64D4F880004E
:103BA800FEF7E7FF00283FF47AAFD4F88000036CF3
:103BB800984774E72046FFF71DFF70E72046FFF798
:103BC80019FF6CE72046FFF715FF0023C4F8903073
:103BD80065E713F0100F3FF43CAF10F0100F3FF4FF
:103BE80038AF1023136223689B6813F0400F53D03B
:103BF800D4F8802013685B689BB2002B3FF44FAF6A
:103C0800B4F85C1099427FF64AAFA4F85E301368A6
:103C18001B6813F0200F32D1226852E8003F23F4CA
:103C2800807342E800310029F6D1226802F10803C6
:103C380053E8003F23F00103083242E8003100292D
:103C4800F3D1226802F1080353E8003F23F0400350
:103C5800083242E800310029F3D12023C4F88C301F
:103C68000023E366226852E8003F23F0100342E88D
:103C780000310029F6D1D4F88000FEF744FF022372
:103C88002367B4F85C10B4F85E309BB2C91A89B2E5
:103C98002046FFF7BAFE02E7B4F85C10B4F85E30CD
:103CA8009BB2C91A89B2B4F85E309BB2002B3FF4BC
:103CB800F6AE00293FF4F3AE226852E8003F23F441
:103CC800907342E800300028F6D1226802F1080318
:103CD80053E8003F23F0805323F00103083242E801
:103CE80000300028F1D12023C4F88C300023E3668B
:103CF8006367226852E8003F23F0100342E800306F
:103D08000028F6D1022323672046FFF77EFEC6E689
:103D18000100001020010004FF39000C4FF480134B
:103D28001362204600F0B6FBB9E6A36F002B3FF400
:103D3800B6AE20469847B2E62046FFF749FEAEE603
:103D4800204600F0A9FBAAE6204600F0A4FBA6E660
:103D580070B50446016883680269134342691343D6
:103D6800C26913430868974A02401A430A602268E6
:103D7800536823F44053E1680B435360A1692268F8
:103D8800914B9A4201D0236A1943936823F06E43FA
:103D980023F430630B4393602268D36A23F00F0344
:103DA800616A0B43D3622368884A934210D0884AD9
:103DB800934221D0874A934237D0874A93425CD0B6
:103DC800B3F1502F6BD0804A93427CD010223AE056
:103DD80002F55842D2F8882002F00302032A09D8D3
:103DE800DFE802F00204860601222CE004222AE021
:103DF800082228E0102226E002F5E632D2F88820D0
:103E080002F00C020C2A0ED8DFE802F0070D0D0DA7
:103E1800090D0D0D740D0D0D0B00002213E0042289
:103E280011E008220FE010220DE002F5E432D2F88A
:103E3800882002F03002202A5ED01AD8002A5DD0ED
:103E4800102A5DD1042260498B4275D0E069B0F533
:103E5800004F00F0CB80082A00F23681DFE812F02C
:103E6800F9001B01F70034011E013401340134014B
:103E78002101302A46D10822E5E702F5E232D2F8DC
:103E8800882002F0C002802A3ED004D8F2B3402A2B
:103E98003ED10422D7E7C02A3CD10822D3E74F4AB3
:103EA800D2F8882002F44072B2F5007F34D005D8E9
:103EB800A2B3B2F5807F33D10422C4E7B2F5407FC4
:103EC80030D10822BFE702F5C832D2F8882002F4C0
:103ED8004062B2F5006F27D005D83AB3B2F5806FCB
:103EE80026D10422AFE7B2F5406F23D10822AAE712
:103EF8000222A8E70222A6E70222A4E70022A2E7FC
:103F08001022A0E710229EE702229CE700229AE7EF
:103F1800102298E7102296E7022294E7002292E7FF
:103F2800102290E710228EE702228CE700228AE70F
:103F3800102288E7102286E7082A00F2B580DFE819
:103F480002F008383EB33BB3B3B305004FF400406A
:103F580004E0FEF737F8002800F0A880626A204BDA
:103F680033F81220B0FBF2F3656805EB450199427E
:103F780000F29E80B3EB053F00F29C80002633469A
:103F88003146FCF755FA090241EA106100026B0854
:103F9800C0182A46334641F10001FCF749FAA0F55A
:103FA8004072104B9A4200F287802368D8603046EE
:103FB80068E0FEF717F8CEE7FDF7B4FACBE70A4852
:103FC800CCE700BFF369FFCF0080005000380150F4
:103FD8000044005000480050004C005000100250AF
:103FE800004C000CFFFC0F000024F400082A65D8E0
:103FF800DFE802F0072705642A6464640B0035488B
:1040080003E0FDF7DFFF00285AD0626A324B33F82D
:104018001230B0FBF3F06268530803EB4003B3FBC4
:10402800F2F3A3F110014FF6EF7291424AD89AB217
:1040380022F00F02C3F3420313432268D360002027
:1040480020E0FDF7CFFFDEE7FDF76CFADBE721485C
:1040580003E0FDF7B7FF002838D0626A1E4B33F83B
:104068001230B0FBF3F0636800EB5300B0FBF3F0E1
:10407800A0F110024FF6EF739A4229D8236880B254
:10408800D86000200123A4F86A30A4F8683000231F
:104098006367A36770BDFDF7A5FFDCE7FDF742FA8C
:1040A800D9E74FF40040D8E70120EBE70020E9E723
:1040B8000120E7E70120E5E70120E3E70120E1E748
:1040C8000020DFE70120DDE70120DBE70020D9E75A
:1040D8000120D7E70024F400004C000C836A13F099
:1040E800080F06D00268536823F40043816B0B4322
:1040F8005360836A13F0010F06D00268536823F4F3
:104108000033C16A0B435360836A13F0020F06D071
:104118000268536823F48033016B0B435360836A4E
:1041280013F0040F06D00268536823F48023416B10
:104138000B435360836A13F0100F06D0026893682C
:1041480023F48053C16B0B439360836A13F0200FF1
:1041580006D00268936823F40053016C0B43936004
:10416800836A13F0400F0AD00268536823F480135F
:10417800416C0B435360436CB3F5801F0BD0836ACB
:1041880013F0800F06D00268536823F40023C16C33
:104198000B43536070470268536823F4C003816C73
:1041A8000B435360EBE72DE9F84305460E461746E7
:1041B8009946DDF820802B68DC6936EA04040CBFD8
:1041C80001240024BC4236D1B8F1FF3FF3D0FDF7FB
:1041D80011F9A0EB0900404530D8B8F1000F2FD0F5
:1041E8002B681A6812F0040FE5D0802EE3D0402E19
:1041F800E1D0DA6912F0080F11D1DA6912F4006F10
:10420800D9D04FF400621A622846FFF7B5FB202385
:10421800C5F89030002385F8843003200CE008248A
:104228001C622846FFF7A8FBC5F89040002385F8D4
:104238008430012000E00020BDE8F8830320FBE77C
:104248000320F9E72DE9F04182B01E46D0F8883006
:10425800202B5AD104460D469046002959D00AB958
:10426800012053E00023C0F890302123C0F88830A3
:10427800FDF7C0F80746A4F85480A4F85680A36850
:10428800B3F5805F02D04FF0000816E0236943B30E
:104298004FF0000811E02023C4F88830032035E0EF
:1042A80038F8023B2268C3F308039362B4F8562037
:1042B80092B2013A92B2A4F85620B4F856309BB2A2
:1042C80093B100963B46002280212046FFF76BFF02
:1042D8000028E0D1002DE3D015F8012B23689A625D
:1042E800E4E7A8460025E8E700963B46002240217F
:1042F8002046FFF758FF18B92023C4F8883005E096
:104308002023C4F88830032000E0022002B0BDE872
:10431800F0810120FAE730B583B004460023C0F8E5
:104328009030FDF767F805462268126812F0080F0A
:1043380010D123681B6813F0040F28D12023C4F878
:104348008830C4F88C300020E066206784F8840048
:1043580003B030BD6FF07E430093034600224FF454
:1043680000112046FFF71FFF0028E2D0226852E81C
:10437800003F23F0800342E800310029F6D12023D2
:10438800C4F88830002384F884300320E0E76FF015
:104398007E4300932B4600224FF480012046FFF70E
:1043A80002FF0028CAD0226852E8003F23F4907325
:1043B80042E800310029F6D1226802F1080353E8E7
:1043C800003F23F00103083242E800310029F3D10D
:1043D8002023C4F88C30002384F884300320B7E706
:1043E80078B310B50446D0F888300BB32423C4F84A
:1043F80088302268136823F001031360A36AE3B9C5
:104408002046FFF7A5FC012811D02268536823F441
:10441800904353602268936823F02A0393602268CC
:10442800136843F0010313602046FFF774FF10BDC3
:1044380080F88430FCF7C8FDD8E72046FFF74EFE29
:10444800DEE7012070470000436E2BB90123A0F876
:104458006A30A0F86830704730B403689A68C2F3CD
:1044680042629968490F094D6B5CDB00084C615C3E
:1044780093FBF1F3A0F86A30AB5CDB00A25C93FB22
:10448800F2F3A0F8683030BC704700BF204C000C35
:10449800184C000C70477047704790F88430012B17
:1044A80018D0012380F884302423C0F888300368AA
:1044B8001A68196821F00101196022F000520023DE
:1044C800436601680A602022C0F8882080F884309A
:1044D800184670470220704738B590F88430012B91
:1044E8001DD00446012380F884302423C0F8883086
:1044F80003681D681A6822F001021A60026893684E
:1045080023F0604319439160FFF79EFF23681D6005
:104518002023C4F88830002084F8840038BD0220A5
:10452800FCE738B590F88430012B1DD004460123F0
:1045380080F884302423C0F8883003681D681A681E
:1045480022F001021A600268936823F0606319433D
:104558009160FFF779FF23681D602023C4F8883035
:10456800002084F8840038BD0220FCE72E4B00228E
:10457800C3F8D8202D49C3F8DC1001F5FF510331E9
:10458800C3F8E0100121C3F8D8102948C3F8DC00AB
:1045980000F57F3000F2E130C3F8E0000220C3F8F4
:1045A800D8002448C3F8DC0000F51F3000F2E130E1
:1045B800C3F8E0000320C3F8D8004FF08040C3F8E8
:1045C800DC001D48C3F8E0000420C3F8D8004FF011
:1045D800C040C3F8DC001948C3F8E0000520C3F860
:1045E800D8001748C3F8DC0000F5C73000F2E11026
:1045F800C3F8E000C3F8D010D3F88C1041F4406140
:10460800C3F88C100F494B6B23F0E05343F08053F1
:104618004B630D4BC3F88022C3F88422C3F8882269
:10462800C3F88C22704700BF00ED00E000E0030CE7
:104638000000040800800120E1FFFF4FE1FFFF9F19
:104648000000F90B00EF00E000E100E008B5FFF71B
:104658008DFF084AD2F8883043F47003C2F88830D6
:1046680002F50032D2F8883043F47003C2F888307B
:1046780008BD00BF00ED00E02F4B1B6813F0080FCA
:1046880016D12D4BD3F89430C3F303232B4A52F899
:104698002320294B9B6803F00C030C2B48D8DFE838
:1046A80003F00C4747470F4747471347474717004B
:1046B800214B1B68C3F30313E8E7214B1A6028E07A
:1046C8001F4B204A1A6024E01D4B1F4A1A6020E045
:1046D800194BD96801F00301DB68C3F303130133F5
:1046E800022904D003291FD0B2FBF3F202E0154AD5
:1046F800B2FBF3F21049CB68C3F3062302FB03F3C2
:10470800CA68C2F3416201325200B3FBF2F30C4AA9
:104718001360094B9B68C3F303130C4AD15C084A26
:104728001368CB4013607047074AB2FBF3F2E1E726
:10473800034B1A60EDE700BF00100250284C000C34
:10474800240000300024F40000127A00704C000CA1
:1047580008B5FFF791FF1B4B1868BDE80840714684
:1047680072467346B7EE000AF7EE000AB7EE001A73
:10477800F7EE001AB7EE002AF7EE002AB7EE003A75
:10478800F7EE003AB7EE004AF7EE004AB7EE005AE5
:10479800F7EE005AB7EE006AF7EE006AB7EE007A55
:1047A800F7EE007A8EF3008C10B4F1EE10CA4FF6D3
:1047B8006074C0F6FF740CEA040CE1EE10CA10BC79
:1047C800F44674472400003010B54FF0000C14E094
:1047D80011F82C4001EB8C0E9EF801301B0443EAC3
:1047E80004639EF8024043EA04239EF803E043EA88
:1047F8000E03046823600CF1010CBCEB920FE7D3A5
:1048080012F0030205D0012A06D0022A09D0032A91
:1048180011D00368186810BD036811F82C401C708B
:10482800F3E711F82C4001EB8C035B7843EA04238F
:1048380004682380EBE711F82C2001EB8C014B78FE
:1048480043EA02230268138003688A781A70E0E753
:104858000023B3EB520F18D230B431F823C001EB68
:104868008304648844EA0C4405682C600133B3EB84
:10487800520FF2D312F0010F03D0026831F823303F
:1048880013800368186830BC704712F0010F03D01A
:10489800026831F8233013800368186870470000F5
:1048A800002838D010B50446437F1BB30223637732
:1048B80023791BBB2368194A5A612268936823F03D
:1048C80018039360637913BB23684FF0FF321A61B2
:1048D8002268936823F0600361690B439360226840
:1048E800936823F08003A1690B43936001236377E6
:1048F800002010BD0377FCF7DDFAD7E7E268A1686E
:10490800204600F035F80028DCD00120F1E72368C4
:1049180022691A61DCE70120704700BFB71DC10496
:1049280038B50446022343770068836843F00103DF
:104938008360236A022B17D0032B0FD0012B0FD0D3
:1049480000200123637738BD206851F823500560A3
:1049580001339342F8D323681868F2E70023F8E795
:104968002046FFF731FFECE72046FFF771FFE8E745
:1049780011F0010F30D010B41F231C46013B34B195
:1049880003F01F0C21FA0CFC1CF0010FF5D0182ABB
:1049980024D8DFE802F00F232323232323231D2316
:1049A80023232323232319232323232323230D0012
:1049B800062B17D80368596101688B6823F0180320
:1049C80013438B6000200AE0072BF3D9012006E08F
:1049D8000F2BEFD9012002E00120704701205DF87C
:1049E800044B70470120FAE7DFF834D0FFF72EFEBA
:1049F800002103E00B4B5B58435004310A480B4B32
:104A080042189A42F6D30A4A02E0002342F8043BCD
:104A1800084B9A42F9D3FBF731FCFBF791FFFEE70D
:104A280000800130984C000C000000302800003055
:104A38002800003080010030FEE70000F8B500BF14
:104A4800F8BC08BC9E467047F8B500BFF8BC08BC67
:084A58009E46704700000000BB
:104A600001000010080000100A0000100C000010E7
:104A70000D0000100E0000100F000010E04B000CA5
:104A800020000000C04B000CA04B000C20000000D8
:104A900001000000804B000C200000003C4B000C8B
:104AA000410000001C4B000C20000000FC4A000CE0
:104AB00020000000DC4A000C200000000100000083
:104AC000C84A000C14000000C49D360886E7049311
:104AD0006A6678E1139D26B7819F7E90FFFFFFFFF6
:104AE00000000000FFFFFFFFFFFFFFFFBCE6FAAD85
:104AF000A7179E84F3B9CAC2FC6325514FE342E273
:104B0000FE1A7F9B8EE7EB4A7C0F9E162BCE335707
:104B10006B315ECECBB6406837BF51F56B17D1F223
:104B2000E12C4247F8BCE6E563A440F277037D81BF
:104B30002DEB33A0F4A13945D898C296046B17D158
:104B4000F2E12C4247F8BCE6E563A440F277037D2E
:104B5000812DEB33A0F4A13945D898C2964FE3429A
:104B6000E2FE1A7F9B8EE7EB4A7C0F9E162BCE331C
:104B7000576B315ECECBB6406837BF51F5000000B1
:104B80005AC635D8AA3A93E7B3EBBD55769886BC9A
:104B9000651D06B0CC53B0F63BCE3C3E27D2604BF1
:104BA0000000000000000000000000000000000005
:104BB00000000000000000000000000000000003F2
:104BC000FFFFFFFF000000010000000000000000E8
:104BD00000000000FFFFFFFFFFFFFFFFFFFFFFFCE4
:104BE000FFFFFFFF000000010000000000000000C8
:104BF00000000000FFFFFFFFFFFFFFFFFFFFFFFFC1
:104C0000010002000400060008000A000C00100069
:104C10002000400080000001080402040801010196
:104C20000101010307010000A0860100400D0300FF
:104C3000801A060000350C0040420F0080841E00E0
:104C400000093D0000127A000024F40000366E01D5
:104C50000048E801006CDC020000000000000000D9
:104C6000000000000000000000000000010203043A
:104C7000000000000000000001020304060708090C
:084C8000E8B7FF7F010000000E
:084C88006502000C00000000B1
:084C90003D02000C00000000D1
:104C98000100000008000000000000000000000003
:104CA80000000000000000000100000000000000FB
:084CB8000000000000093D00AE
:020000040C03EB
:10E000007FE97FE9C6F7A8BB7FE97FE9C3F772B96B
:10E010007FE97FE9C3F76CB87FE97FE9C3F726B8EA
:10E020007FE97FE9C3F728B97FE97FE9C3F7E4B85F
:10E030007FE97FE9C3F7A0B80000000000000000FE
:040000050C0049F1B1
:00000001FF
